:020000040800F2
:10000000D8520020A103000827620008E14A000836
:10001000F960000899200008A172000800000000A3
:10002000000000000000000000000000E1020008E5
:100030002D220008000000003D030008396A000876
:10004000BB030008BB030008BB030008BB03000898
:10005000BB030008BB030008BB030008BB03000888
:100060004D220008BB030008532200083521000878
:10007000BB030008BB030008BB030008BB03000868
:10008000412100084D210008BB03000800000000CA
:1000900000000000000000000000000059220008DD
:1000A0000D6B0008456B0008296B0008BB030008B6
:1000B000616B00086D6B0008BB030008E54A00088F
:1000C000BB030008BB030008BB030008BB03000818
:1000D000BB030008BB0300085172000800000000C9
:1000E0002F220008BB030008BB030008000000002B
:1000F000000000000000000000000000592100087E
:1001000000000000BB030008796B0008BB03000877
:1001100000000000000000000000000000000000DF
:100120006521000871210008BB030008BB0300081B
:10013000BB030008000000000000000000000000F9
:10014000000000000000000000000000BB030008E9
:10015000BB0300087D210008BB030008797200087A
:10016000BB030008BB030008000000000000000003
:10017000000000000000000000000000000000007F
:1001800000000000BB0300080000000000000000A9
:10019000BB03000800F002F800F092F80AA090E813
:1001A000000C82448344AAF10107DA4501D100F032
:1001B00087F8AFF2090EBAE80F0013F0010F18BF6D
:1001C000FB1A43F00103184750C2000070C2000040
:1001D000103A24BF78C878C1FAD8520724BF30C873
:1001E00030C144BF04680C60704700000023002445
:1001F00000250026103A28BF78C1FBD8520728BF37
:1002000030C148BF0B6070476E2900F0CF82702963
:1002100000F0118466290AF0F08465290AF0ED8463
:1002200067290AF0EA8461290AF0E98403681B0A55
:1002300028BF41F08001692900F07C82642900F028
:100240007982752900F076826F2900F09E837829E3
:1002500000F0DD83E92900F03983E42900F03683DA
:10026000F52900F03383EF2900F09B83F82900F093
:10027000DC830368DB0928BF41F08001632901F0BA
:10028000E380732901F0E880E32901F0F380F3298A
:1002900001F0F880002070471FB50AF0A4FC01F0BF
:1002A00047F904000020002109F018FF401C60609D
:1002B0000020002109F0FCFEE0601FBD10B510BD5C
:1002C00001F008F91146FFF7E7FF08F013FA01F013
:1002D000E5F903B4FFF7F2FF03BC01F029FA0000CF
:1002E0002C4B19680868B0E8F04F80F30988BFF319
:1002F0006F8F4FF0000080F31188704700000000FE
:1003000008480068006880F308884FF0000080F318
:10031000148862B661B6BFF34F8FBFF36F8F00DFF3
:1003200000BF00BF08ED00E0DFF80C00016841F4F9
:1003300070010160704700BF88ED00E0EFF30980B5
:10034000BFF36F8F134B1A681EF0100F08BF20ED1C
:10035000108A20E9F04F106009B44FF0500080F38C
:100360001188BFF34F8FBFF36F8F09F0D9FC4FF0A7
:10037000000080F3118809BC19680868B0E8F04FE4
:100380001EF0100F08BFB0EC108A80F30988BFF38D
:100390006F8F704720000020EFF30580704700004A
:1003A0000948804709480047FEE7FEE7FEE7FEE709
:1003B000FEE7FEE7FEE7FEE7FEE7FEE70448054945
:1003C000054A064B70470000FD6A000895010008C9
:1003D000D84C0020D8520020D84E0020D84E002003
:1003E00053EA020C00F069802DE9F04B4FF0000653
:1003F000002B1FBFB3FA83F503FA05F424FA05F6C0
:100400005E4012BF1643B2FA82F502FA05F4C5F156
:1004100020051EBF22FA05FC44EA0C04203556EAEA
:10042000044C4FEA144418BF641C4FF000084FF00E
:100430000009904271EB030C39D3002919BFB1FABE
:1004400081F701FA07F6B0FA80F700FA07F6C7F16C
:1004500020071EBF20FA07FC46EA0C062037B6FB31
:10046000F4FCA7EB0507103F07F01F0BCBF12006AC
:100470000CFA0BFB2CFA06F644BFB3460026202FDD
:10048000A4BF5E464FF0000B5BEA060C08BF4FF0BE
:10049000010B19EB0B09ABFB027C48EB0608C01BF8
:1004A00006FB02CC0BFB03CC71EB0C01C1E70B4646
:1004B000024641464846BDE8F08B13B54FF00000B8
:1004C0004FF00001AFF30080BDE81C407047000012
:1004D0001CB50C46064B7B4469460090204600F054
:1004E0007EF904460020694600F08CF920461CBDC8
:1004F0002B03000040EA010310B59B070FD1042A2B
:100500000DD310C808C9121F9C42F8D020BA19BADE
:10051000884201D9012010BD4FF0FF3010BD1AB143
:10052000D30703D0521C07E0002010BD10F8013B98
:1005300011F8014B1B1B07D110F8013B11F8014BBF
:100540001B1B01D1921EF1D1184610BD10B5203AE7
:10055000C0F00B80B1E81850203AA0E81850B1E87C
:100560001850A0E81850BFF4F5AF5FEA027C24BF32
:10057000B1E81850A0E8185044BF18C918C0BDE829
:1005800010405FEA827C24BF51F8043B40F8043BF2
:1005900008BF7047D20728BF31F8023B48BF11F8A7
:1005A000012B28BF20F8023B48BF00F8012B704701
:1005B00002F0FF0343EA032242EA024200F002B8DB
:1005C0004FF000020429C0F0128010F0030C00F07C
:1005D0001B80CCF1040CBCF1020F18BF00F8012BFA
:1005E000A8BF20F8022BA1EB0C0100F00DB85FEAC8
:1005F000C17C24BF00F8012B00F8012B48BF00F894
:10060000012B70474FF0000200B513469446964602
:10061000203922BFA0E80C50A0E80C50B1F1200115
:10062000BFF4F7AF090728BFA0E80C5048BF0CC0C3
:100630005DF804EB890028BF40F8042B08BF704721
:1006400048BF20F8022B11F0804F18BF00F8012B93
:10065000704770477047704710B500F0BBFA0068EC
:1006600010BD10B5044600F0B5FA046010BD70B5B9
:10067000044685690068C10601D5302600E02026C1
:10068000C00707D070BDD4E9012130469047206AE9
:10069000401C20626D1EF6D570BD70B5044685699C
:1006A0000078C00707D170BDD4E901212020904710
:1006B000206A401C20626D1EF6D570BD09684A058F
:1006C00001D540B27047C905FCD500B27047096832
:1006D0004A0501D5C0B27047C905FCD580B2704744
:1006E00070B50C460546012A05D02878800600D54D
:1006F000EA69002302E0012305E05B1C934202D279
:10070000E05C0028F9D1A869E618C01AA861286A37
:10071000184428622846FFF7AAFF04E0D5E9012122
:1007200014F8010B9047B442F8D32846FFF7B5FF01
:1007300070BD00002DE9F0410646002410687529BF
:10074000314616A510D0FFF7B9FF002802DA404263
:1007500013A507E031688A0701D512A502E0490711
:1007600004D511A5012401E0FFF7B1FF00210A2201
:1007700006F1240709E0B0FBF2FCB0FBF2F302FB48
:100780001C00303078541846491C0028F3D1234609
:100790002A463046BDE8F04100F065BA000000008E
:1007A0002D0000002B0000002000000011680268EE
:1007B000006A530501D508700AE0D30501D5088009
:1007C00006E0130603D5C217C1E9000200E0086085
:1007D0000120704701694A1C02610878704700B522
:1007E0008FB0CDE901310021059105497944CDE96A
:1007F00003101146684600F029F90FB000BD000053
:10080000E5FFFFFF0A6802F8010B0A60704700006D
:100810002DE9FF5F15468A460446DFF8AC80F844B0
:100820000027D8E900103E46CDE9001010E03AF864
:1008300016106A4602A800F029FE411C07D0217854
:10084000890603D5E269391891420DD80744761C10
:100850002078800602D5E069B84205DDAE42E6DBCD
:100860003AF816000028E2D1A069C01BA06120461A
:10087000FFF7FDFED8E90010CDE90010002017E0D9
:100880003AF818106A4602A800F000FEB0F1FF3FE7
:1008900081460BD000250DF1080B05E0D4E90121BC
:1008A0001BF8050090476D1C4D45F7D308F101007A
:1008B000B0428046E4DB206A384420622046FFF7DD
:1008C000ECFEBDE8FF9F000026BA00002DE9F041D4
:1008D0008046D21D22F007020025D2E90002F52948
:1008E00015A614D0011E72F1000106DA0023D0EB28
:1008F000030063EB020211A608E0D8F800108B0792
:1009000001D50FA602E0490701D50EA60125114623
:10091000002408F1240704E000F060F930323A5571
:10092000641C50EA0102F7D12B463246214640466C
:10093000BDE8F04100F097B9000000002D00000074
:100940002B0000002000000030B4002100F124043E
:1009500008E002F00705D208303542EA4372DB08AE
:100960006554491C52EA0305F3D10468002310A220
:10097000250707D5A40600D421B1C46901230DA21F
:10098000641EC46130BC00F06EB910B50446214647
:100990001068FFF79CFE02462046BDE81040002389
:1009A000D2E7D21D22F00701D1E90023CCE70000F5
:1009B0000000000030000000F0B40D460188090579
:1009C00002D5214C7C4402E01F4C7C440E340021B3
:1009D00000F1240608E002F00F071209E75D42EA81
:1009E00003721B097754491C52EA0307F3D10278BA
:1009F0000023120704D5702D06D009B1022311344B
:100A00002246F0BC00F02FB901231034F8E770B58E
:100A100004460D4621461068FFF759FE0246294656
:100A20002046BDE870400023C6E7D21D22F0070330
:100A3000D3E90023C0E70368126843F02003036092
:100A40000823C3610023B7E788B800002DE9F05FF1
:100A5000894604464FF0000ADFF874B1FB44C0F841
:100A600020A02046E1688847002874D0252806D0B9
:100A7000D4E901219047206A401C2062F1E700265A
:100A80005F462046E16888472028054607DB312D70
:100A900005D2781910F8200C08B10643F1E7B00729
:100AA00001D526F00406C4F81CA00027C4F818A03D
:100AB0002A2D09D0284607F03FF938B304EB870800
:100AC000303DC8F8185019E059F8041B204604EBD3
:100AD00087029161E1688847012F054618D1E069D6
:100AE000002820DA26F020061DE0D8F8180000EBD8
:100AF000800005EB40003038C8F818002046E16857
:100B00008847054607F018F90028EED1012F0AD0D2
:100B10002E2D08D12046E16888477F1C0546022F0C
:100B200046F02006C4DBA069002803DA404246F004
:100B30000106A061F00701D026F010066C2D0BD045
:100B4000682D09D04C2D39D06A2D35D0742D35D073
:100B50007A2D33D016E038E0E1682F4620468847EA
:100B6000B842054609D16C2F26D04FF48060E16869
:100B7000064320468847054604E06C2F1AD04FF400
:100B8000807006430DB3A5F14100192802D8203525
:100B900046F400664A462946204626604E46FFF740
:100BA00033FB80B101280BD0F61D26F0070000F1C1
:100BB000080956E74020E4E78020D8E70020D6E780
:100BC00006F104094DE7284652E7206ABDE8F09F88
:100BD00018B8000000487047784C002030B5B0F1DC
:100BE0000A024FEA900E71F100034EEA817EB0EBEB
:100BF0000E0061EB91014FEA101E4EEA017E10EBF0
:100C00000E0041EB11114FEA102E4EEA016E10EB6F
:100C10000E0041EB11214FEA104E4EEA014E10EB4F
:100C20000E0041EB1141401841F100014FEAD000A4
:100C300040EA41704FEAD10110EB80054FEA810490
:100C400044EA907444EB01046D1944EB0404521B14
:100C5000A3414FF0000348BF0A3200D530BD401C0D
:100C600041F1000130BD2DE9F0470D46994692460D
:100C7000044600F124080168880604D5E06921F0E3
:100C80001001216000E00120A84201DD471B00E0C7
:100C90000027A1697A1902EB0900081AA0612078DF
:100CA000C00602D42046FFF7E2FC002608E0D4E9A3
:100CB00001211AF806009047206A401C761C206229
:100CC0004E45F4DB2078C0060AD52046FFF7CFFC5E
:100CD00006E0D4E9012130209047206A401C2062C0
:100CE000381EA7F10107F4DC07E0D4E9012118F868
:100CF00005009047206A401C2062281EA5F10105CE
:100D0000F3DC2046FFF7C9FC2078000602D502205C
:100D1000BDE8F0870120FBE770472DE9FF4F0C4647
:100D20001E464FF0FF378BB0D2E90001DDF860803E
:100D30000A908A46C1F30A5505B93D460021084686
:100D40004FF00000BAF1000F00F4400005DA00EBAC
:100D500080004FF4400101EA50004FEA9059B9F188
:100D6000010F00DDB9460A9850EA4A000ED044F659
:100D70001050A5F2FF3545432F14B8F1000F1ED0D7
:100D80007542291E1EDDC9F100021CE0B8F1010FF9
:100D90004FF0000001D0302103E0F24305E0215480
:100DA000401CB042FBDB30460022002121540B994D
:100DB000C1F80880C1E900200FB0BDE8F08FBD1B6D
:100DC0006D1CDEE74A4600DA694206A800F0F4FB33
:100DD00006AB93E8070003AB83E8070050460A9987
:100DE00000F0ADFC8DE80700A0F500501F38009022
:100DF0000398002D0ADD42F21F014A4608440023F1
:100E000003A90390684600F016FF09E0A0F5005022
:100E10004A461F38002303A90390684600F020FFCC
:100E20008DE807000004000C03D04FF0FF304108AC
:100E300000E01046B8F1000F03D0002200921546E2
:100E40001EE0751E05D4FFF7C9FE303262556D1ED7
:100E5000F9D5B3460122084302D000227F1C04E0EA
:100E60002078302801D100227F1E002A099784D0E3
:100E70001DE0112D07DAFFF7B1FE303262556D1C0F
:100E800050EA0102F5D1084302D00098C8B10EE043
:100E90000021681E05E0235C625C63542254401EFE
:100EA000491C8142F7DBAB46A81B401E099000207D
:100EB00004F80B000B98099AC0F80880C0E9002BD1
:100EC0007AE711264FF0000857E72DE9F04F8846E2
:100ED0000446D21D22F0070191B0D1E90001CDE90D
:100EE0000A0106F03BFA02460B98C00F01D02D20F4
:100EF00007E02068810701D52B2002E0202101EACC
:100F0000C000032A099001D0072A05DB03464146A9
:100F1000204600F011FB0BE12078800601D5E06946
:100F200000E00620B8F1650F814606D0B8F1660FE3
:100F300018D0B8F1670F70D131E00020B9F1110F6E
:100F4000009001DB112301E009F101030AAA01A9C4
:100F50000CA8FFF7E2FEDDE90C70002609F101059F
:100F6000834647E001204B4600904FF000470AAA15
:100F700001A90CA8FFF7D1FEDDE90DB00C995D4683
:100F8000002610B909F101000D18B9EB050003D4D2
:100F9000C0F1FF3609F10105A5EB09002BE0B9F11D
:100FA000010F01DA4FF001090020B9F1110F009093
:100FB000484601DD112300E003460AAA01A90CA856
:100FC000FFF7ABFEDDE90C704D4600268346207826
:100FD00000070AD4AB4500DA5D4601A8012D04DD07
:100FE000411911F8011C302907D04F4502DA17F1D9
:100FF000040F04DA012082460FE06D1EEEE7002F99
:1010000002DCED1B3E4403E0781CA84200DD7D1CA1
:10101000B81B00F1010A4FF000472078000703D405
:10102000AA4501DB4FF0FF3A0021B7F1004F0DF167
:1010300043088DF8431024D002202B23002F01DA1F
:101040007F422D230A21021EA0F1010000DC5FB1C6
:1010500097FBF1FC97FBF1F201FB1C7C17460CF1AE
:10106000300C08F801CDEEE7A8F1010003702188EB
:10107000090501D5452100E06521A0F1010800F82E
:10108000011C09980FA9A1EB0807FF1D00B1012061
:10109000411901EBEA70A1693844081A401EA061A9
:1010A0002078C00602D42046FFF7E1FA099828B15B
:1010B000D4E901219047206A401C20622078C006B4
:1010C00022D52046FFF7D3FA1EE0002E04DBB345FD
:1010D00002DD01A8805D00E03020D4E901219047C5
:1010E000206A401C2062761CAAF101005FEA000A17
:1010F0000AD100F01DFAC0680168405CD4E9012102
:101100009047206A401C2062281EA5F10105DCDC06
:1011100007E0D4E9012118F8010B9047206A401C30
:101120002062381EA7F10107F3DC2046FFF7B5FA6D
:10113000032011B041E600002DE9F04F04460D46B2
:10114000D21D22F0070089B0D0E900974846394601
:1011500006F004F90246F80F01D02D2307E02068BD
:10116000810701D52B2302E0202101EAC0038DF87D
:1011700020300BB1012000E00020032A824601D07C
:10118000072A04DB2946204600F0D6F93FE1207803
:10119000800601D40D2500E0E569C7F30A560D2D40
:1011A00049DA00214FEA175B08464FF00000002F94
:1011B00000F4400007DA00EB80004FF4400100EB40
:1011C000D07001EA60008115012901DD4FF0FF3187
:1011D00000224FEA850CBCF1180F06D31346ACF180
:1011E00018004FF08052C24003E04FF4801323FAFE
:1011F0000CF30CF10C0CBCF1200F04D3ACF1200C5F
:1012000009FA0CF001E007FA0CF000294FF0004851
:1012100001DD18B90FE00ED140450CD319EB0209DE
:101220005F4121B9404502D19F4329EA0209BBEB46
:10123000175F00D0761C2088000502D57B487844D3
:1012400002E07A487844193808AA302302F80A30B4
:10125000037C0AF10101002E0AF1020A53546A4686
:1012600002DC4FF0300101E04FF031014FF0010896
:101270008DF8001002D0A6F2FF3603E059EA4701CC
:1012800000D06B4E002D02DC2178090704D54FF009
:1012900002082E218DF80110C44600210BE0C7F38F
:1012A00003433F01C35C491C6D1E02F80830052949
:1012B00008F1010801DA002DF1DC00210CE000EB5F
:1012C0001973491C1B786D1E082902F808304FEA73
:1012D000091908F1010801DA002DF0DC21688B06FC
:1012E00002D516E0A8F10108E04505DD02EB080390
:1012F00013F8013C302BF5D0B8F1000F09DD02EBFB
:10130000080313F8013C2E2B03D1090701D4A8F1DF
:101310000108002D05DD3E2102F808106D1E08F1C0
:101320000108407C002E02F8080008F1010804DAE8
:101330002D20764202F8080002E02B2002F8080077
:101340000A214FF47A70864208F101080BDB96FB04
:10135000F0F3303302F8083096FBF0F308F101089F
:1013600000FB136601E0642E0CDB642096FBF0F3B7
:10137000303302F8083096FBF0F308F1010800FB67
:10138000136601E00A2E06DB96FBF1F0303002F81E
:10139000080008F1010896FBF1F001FB1060303005
:1013A00002F80800A16908F1010808EB050202EB48
:1013B0000A00081AA0612078C00602D42046FFF770
:1013C00056F9216A08AE01EB0A00206204E0D4E974
:1013D000012116F8010B9047BAF1010AF7D22078E3
:1013E000C00602D52046FFF742F96E4609E016F81E
:1013F000010B3E280FD0D4E901219047206A401C00
:101400002062B8F10108F2D22046FFF746F909B090
:101410000320BDE8F08F206A2844206203E0D4E96D
:101420000121302090476D1EEBD3F8E701B1000099
:1014300002FCFFFF10B5436913B1AFF3008001E078
:10144000FFF74EF9012010BD127800F124010A7057
:1014500000224A700122EDE711684FF0FF32E9E700
:1014600010B5436913B1AFF3008001E0FFF7D0F985
:10147000012010BD128800F1240182840022C28460
:101480000122EDE711684FF0FF32E9E770B516462B
:101490000C46054600F044F8036893F80101012862
:1014A00006D0FF2C0FD8185D68B101202C7070BDDC
:1014B000D3F807013246214603F2071303442846B6
:1014C000BDE8704018474FF0FF3070BD00487047CE
:1014D000784C00207546FFF7F9FFAE4605006946D7
:1014E000534620F00700854618B020B5FEF766FF8A
:1014F000BDE820404FF000064FF000074FF0000815
:101500004FF0000B21F00701AC46ACE8C009ACE895
:10151000C009ACE8C009ACE8C0098D4670470000BE
:1015200010B500F005F8001D10BD00BFB18B000024
:1015300000487047984C00202DE9F0411F460446B2
:1015400003260168072A01F4006004DB08B116A530
:1015500005E016A503E008B115A500E015A521F0EA
:1015600010002060A069C01EA0610FB1401EA061E4
:101570002046FFF77CF84FB1D4E901213846904767
:10158000206A401C2062C01C206206E0206AFAE744
:10159000D4E9012115F8010B9047761EF8D22046B8
:1015A000FFF77BF8BDE8F0814E414E006E616E00A2
:1015B000494E4600696E66002DE9F04781461646A1
:1015C0008AB0354878440DC88DE80D00324878441B
:1015D000801C03AC0DC884E80D0041F69B30084424
:1015E000372190FBF1F290FBF1F5A5F1800501FBAD
:1015F00012041B3C02D56442012000E00020DFF809
:1016000098A080460027FA44AAF1BE0A0EE0E0073F
:101610000AD03246684607EB470101230AEB8101F5
:1016200000F01EFB8DE8070064107F1C002CEED13B
:10163000194F7F44AE3F19E0E80715D007EB0410BF
:101640000DF1180A90E80E008AE80E00C068F0421A
:1016500001D1981908903246012306A903A800F089
:10166000FFFA03AB83E807006D10641C002DE3D183
:101670004FF0010332466946B8F1000F03A802D0CB
:1016800000F0D9FA01E000F0EBFAC9E90001C9F86D
:1016900008200AB0BDE8F0870CAE000010B5044683
:1016A000AFF300802046BDE81040FEF712BE0000F8
:1016B0004FF0013C50F8042B51F8043B9A4221D1E1
:1016C000A2EB0C03934313EACC1317D150F8042B6D
:1016D00051F8043B9A4215D1A2EB0C03934313EA51
:1016E000CC130BD150F8042B51F8043B9A4209D18A
:1016F000A2EB0C03934313EACC13DBD04FF00000B2
:10170000704700BFD01A01BAB1FA81F101F0180197
:1017100022FA01F0CB40C1F12001DBB2C0B2C01A05
:101720002CFA01F3D11A914311EAC311E6D17047A3
:1017300001491820ABBEFEE72600020070475FEAB1
:10174000400C08BF91F0000F4FEA8C234FEAC122F2
:1017500043EA51514FEA1C5018BF00F5F0404FEAE0
:10176000300018BF41F000415FEA6C5C00F0298056
:10177000BCF1FF3F08BF40F080407047130C06BF2C
:1017800012044FF0100C4FF0000C130E04BF1202A5
:101790000CF1080C130F04BF12010CF1040C930F91
:1017A00004BF92000CF1020CD30F04BF52000CF1E5
:1017B000010C11464FF00002A0F11F00A0EB0C003D
:1017C000704711F0004F08BF704731F000413FF4FF
:1017D000D5AF0B0C06BF09044FF0100C4FF0000CF6
:1017E0000B0E04BF09020CF1080C0B0F04BF09011A
:1017F0000CF1040C8B0F04BF89000CF1020CCB0F11
:1018000004BF49000CF1010CCCF12003A0EB0C004B
:1018100022FA03F302FA0CF241EA030100F101009B
:10182000704720F07F4C80EA030023F07F47ACEB49
:10183000070303F57C5300F0004003F1FF032DE99B
:1018400080494FEA154B09B44FEA144325EA0B4E81
:1018500024EA03480FF2042606EB132749083E78D2
:101860005FEA320203FB0667C7F5000707FB06F6CF
:101870004FEA54374FEAD64606F1020607FB066CDC
:10188000CCF1005C4FEA1C472CEA074C07FB06F43E
:101890000CFB06F504EB15464FEA961634BF002004
:1018A0004FF000404FEAD13706FB07FC4FEA1C4CD3
:1018B0000CFB0BF7D21B03FB0CF761EB07010CFBD6
:1018C0000EF7B0EB074072EB17420CFB08F734BF82
:1018D000A2EB0742B2EB074261EB17414FEA0C441F
:1018E0004FEA910706FB07FC4FEA1C4C0CFB0BF779
:1018F000B0EBC74072EB573203FB0CF734BFA2EBDF
:10190000C742B2EBC74261EB57310CFB0EF7B0EBAD
:10191000C70072EB57720CFB08F734BFA2EBC7028B
:10192000B2EBC70261EB5771039F4FEA816141EA55
:10193000921104EBCC044FEAD1374FEA826206FBE6
:1019400007FC42EA90124FEA80604FEA1C4C0CFB05
:101950000BF7D21B03FB0CF761EB07010CFB0EF737
:10196000B0EB074072EB17420CFB08F734BFA2EB59
:101970000742B2EB074261EB17414FEA8C554FEA41
:10198000910704EB9C2406FB07FC4FEA1C4C0CFB64
:101990000BF7B0EBC74072EB573203FB0CF734BFC9
:1019A000A2EBC742B2EBC74261EB57310CFB0EF71B
:1019B000B0EBC70072EB57720CFB08F734BFA2EB19
:1019C000C702B2EBC70261EB577115EB4C254FEA2A
:1019D000816141EA92114FEA82624FEAD13742EACD
:1019E000901206FB07FC44F100044FEA80604FEAC6
:1019F0001C4C0CFB0BF7D21B03FB0CF761EB070134
:101A00000CFB0EF7B0EB074072EB17420CFB08F72C
:101A100034BFA2EB0742B2EB074261EB174115EB73
:101A20001C154FEA813141EA92414FEA823242EA83
:101A300090424FEA80304FEA0C7644F1000448EAC5
:101A400003434EEA0B484FF0000EB2EB080C71EB6B
:101A5000030724BF624639464EEB0E0E4FF0000BD3
:101A60000018524149414BEB0B0BB2EB080C71EBE8
:101A700003077BF1000B24BF624639464EEB0E0E86
:101A80004FF0000B0018524149414BEB0B0BB2EBEE
:101A9000080C71EB03077BF1000B24BF624639464B
:101AA0004EEB0E0E51EA020718BF46F0010616EB88
:101AB0000E7655F1000254F1000103D5BDE889010D
:101AC000BDE80088BDE88901BDE80048B61952416B
:101AD00041EB0101A3F10103704780807F7E7D7C93
:101AE0007B7A7978777676757473727171706F6EB0
:101AF0006E6D6C6C6B6A6A6968686766666564645B
:101B0000636362616160605F5F5E5E5D5D5C5C5BE4
:101B10005B5A5A5959585857575656555555545453
:101B2000535352525251515050504F4F4F4E4E4DB1
:101B30004D4D4C4C4C4B4B4B4A4A4A4949494848FD
:101B4000484747474746464645454544444444433D
:101B500043434342424242414141002B9C4630D4E0
:101B600077002BD01CB54FEA370703B44FF01000B5
:101B70004FF01001BAF1000F06D0BCF1000FDCBF2E
:101B800040F0080040F008014FF000000FBCBDE835
:101B900010400BF1010BBBF1010F08BF5FEA170703
:101BA00022BF12F1010211F101014FF0004143F196
:101BB000000300F0004043EA00007047F9D35708E3
:101BC000D0E746EA064613F1400F4FEA16461FDDFE
:101BD00013F1200FDFBF16430A46002120335B427A
:101BE000BED0C3F1200746EA064602FA07F74FEADD
:101BF000164646EA0706C3F1200722FA03F201FA65
:101C000007F721FA03F14FF0000342EA0702A7E7C2
:101C100046EA020646EA06464FEA164646EA010644
:101C2000BCBF46EA0646360C4FF000034FF00002F8
:101C30004FF0000194E72DE9804C9A46934670B42A
:101C400091E8380007C831EA400C48BF34EA430C39
:101C500003D5FFF7E6FDFFF780FFF0BCBDE8008C81
:101C60002DE9804C9A46934670B491E8380007C835
:101C700010F0804F08BF13F0804F03D100F005F83B
:101C8000FFF76BFFF0BCBDE8008C20F07F4780EAD7
:101C9000030023F07F4C07EB0C03A3F57C5300F00B
:101CA0000040A3F1FE0392F0000F00F0B38095F026
:101CB000000F00F077802DE901494FEA11404FEA0B
:101CC000144621EA004800FB06FC24EA064708FB0C
:101CD00006F607FB08F800FB07F718EB06484CEB85
:101CE000164C4FEA124B18EB07484FEA15464CEBDF
:101CF000174022EA0B4E0BFB06FC25EA06470EFBBB
:101D000006F607FB0EFE0BFB07F71EEB064E4CEB31
:101D1000164C4FF000061EEB074E4CEB174B18EB22
:101D20000B0840F1000018EB0E0B58EB000840F1D7
:101D300000008F1A4FF000013CBFC943661B14BF5F
:101D4000B5EB040C00213CBFC943F61B4FEA174416
:101D50004EEA8E0E27EA04454FEA1C4704FB076251
:101D60002CEA074C05FB07F70CFB05F604FB0CFC03
:101D700016EB074642EB174216EB0C4642EB1C42B1
:101D80001BEB060658EB0202414146EA9E0601D5CE
:101D9000BDE80189B619524141EB0101A3F10103EC
:101DA000BDE801894FEA14454FEA114724EA054688
:101DB00021EA074C05FB07F406FB07F70CFB06F1CD
:101DC00005FB0CFC11EB074144EB17444FEA1247AB
:101DD00011EB0C4144EB1C4422EA074C05FB07F2D3
:101DE00006FB07F70CFB06F605FB0CFC16EB07469B
:101DF00042EB174216EB0C4642EB1C456A1854F1B5
:101E0000000148BF7047B619524141EB0101A3F1EF
:101E10000103704795F0000F37D04FEA11424FEAA7
:101E2000144721EA024624EA074C02FB07F106FBAD
:101E300007F70CFB06F402FB0CFC14EB074441EB28
:101E400017414FEA154714EB0C4441EB1C4125EABE
:101E5000074C02FB07F506FB07F70CFB06F602FB37
:101E60000CFC16EB074645EB174516EB0C4645EB0D
:101E70001C42121951F1000148BF7047B619524176
:101E800041EB0101A3F1010370474FEA14454FEA0A
:101E9000114724EA054621EA074C05FB07F106FB3A
:101EA00007F70CFB06F24FF0000605FB0CFC12EBEB
:101EB000074241EB174112EB0C4251EB1C4148BF6A
:101EC0007047921841EB0101A3F10103704710B56F
:101ED0000146806B026C12F0500F05D0026CD206E6
:101EE00026D500F0BEFA10BD016C41F4007101640A
:101EF00001688A6812F0405F17D1027EAAB9CA6AE7
:101F000012F4700F02D08A6852050ED44A6822F08B
:101F100020024A60016C21F480710164016CC904E3
:101F200003D4016C41F00101016400F07FFA10BD9F
:101F3000806BC26CBDE810400846104710B5806B3E
:101F400040210164416C41F00401416400F089FAD0
:101F500010BD10B5806B00F083FA10BD464910B576
:101F60004A6822F440324A604A6843681A434A6029
:101F700001684A6822F480724A6001684A6803690D
:101F800042EA03224A6001684A6822F040724A60CD
:101F900001684A6883681A434A6001688A6822F4C3
:101FA00000628A6001688A68C3681A438A60816A2D
:101FB0006FF07062D14201688A6822F070628A60B4
:101FC00001688A680CD0836A1A438A6001688A684B
:101FD00022F040528A6001688A68C36A1A4301E0AD
:101FE00022F040528A6001688A6822F002028A6008
:101FF00001688A68037E42EA43028A6090F82010F2
:10200000002901684A680FD042F400624A60016802
:102010004A6822F460424A6001684A68174C436A81
:1020200004EB43331A4301E022F400624A60016882
:10203000CA6A22F47002CA620168CA6A838B104CB1
:1020400004EB03531A43CA6201688A6822F40072DF
:102050008A6001688A6890F8303042EA43228A60D8
:1020600001688A6822F480628A6001688A6840692F
:1020700042EA8020886010BD0023014000E0FFFF9D
:102080000000F0FF03220249024800F071BA00008C
:10209000EC4A002070030020FEE7000070B5064601
:1020A00005F074FE04F02AF81C4D1D4AD5F88C107A
:1020B000914202DC1B4A914201D9012100E000213A
:1020C000E9701949DFED190A896800EE101A421A01
:1020D000B8EEC00A20EE200ABDEEC00A10EE101ABB
:1020E0000C1813484142824201DA024602E08A4259
:1020F00000DD0A46844201DA044602E08C4200DD3B
:102100000C46736BE97806F114009847E97822468B
:1021100006F13800B36DBDE870401847344A00201E
:1021200000007042000070C2E8000020CDCC4C3F9F
:10213000D08AFFFF014800F00BBB00006C040020B8
:10214000014800F005BB0000CC070020014800F06A
:10215000FFBA00006C070020014800F0F9BA000047
:10216000CC040020014800F0F3BA0000B8030020BE
:10217000014800F0EDBA00002C080020014800F0F2
:10218000E7BA00008C08002001681823CAB2103A90
:10219000B2FBF3F2054B6FF30901032A9B5CC365A5
:1021A00000D9091D816508467047000074AC00081D
:1021B00010B5014600208B698A6A4FF0C07453B194
:1021C000B3F5005F15D072B1012A0CD0022A0AD0F3
:1021D000032A09D104E01AB1012A06D0022A03D148
:1021E000C96AC90100D5012010BDC96AA142FAD04F
:1021F00010BD002AF7D0012AF2D0022AF3D0032A18
:10220000F3D010BD30B50468256825F4802525601D
:10221000046863608368402B036803D0996000689A
:10222000C26030BD9A600068C16030BD704710B5B3
:102230004FF4805000F0B8FC4FF4005000F0B4FCB4
:10224000BDE810404FF4004000F0AEBC042000F0A8
:10225000ABBC102000F0A8BC10B5202000F0A4FCFE
:10226000BDE810404FF4007000F09EBC10B504466D
:1022700003F0ECFBC0B2207010BD72B6FEE70000A8
:102280000189418101680A68516A094B89B2198044
:102290000023536247F23052914201D9A1F58031B7
:1022A00000EE101AB8EEC00A80ED030A00897047EC
:1022B000F400002010B500F1240486B0231F1A1F7B
:1022C0000DF1040C111F8CE81E00091F0B1F00915B
:1022D000103A0C39001D03F0B9FA06B010BD000029
:1022E00078B50024009490F83C20012A19D00122EE
:1022F00080F83C200A6807230568092A13D9EE688C
:102300000A3A02EB420293409E43EE600B788A68E1
:102310000A3B03EB43039A400368DD682A43DA6013
:1023200010E0022078BD2E6902EB420293409E43EA
:102330002E610B788A6803EB43039A4003681D699A
:102340002A431A614A681F23072A13D205686E6B55
:10235000521E02EB820293409E436E630B790A8801
:102360005B1E92B203EB83039A4003685D6B2A43C2
:102370005A6327E005680D2A12D22E6BD21F02EB9A
:10238000820293409E432E630B790A88DB1F92B230
:1023900003EB83039A4003681D6B2A431A6311E021
:1023A000EE6A0D3A02EB820293409E43EE620B7995
:1023B0000A880D3B92B203EB83039A400368DD6AFF
:1023C0002A43DA62164B0568144A9D4206D10D680D
:1023D000122D03D1556845F48005556005689D426E
:1023E00018D10B68102B01D0112B13D1536843F473
:1023F00000035360096810290CD10A490A4A096888
:10240000B1FBF2F101EB8101490000E0491E0091AE
:102410000029FBD180F83C40002078BD002301401A
:10242000002001401C00002040420F0008481421F9
:102430000068B0FBF1F007492828086000D928207F
:1024400008600549032208720149044800F090B869
:10245000EC4A002010010020344A002070030020C4
:102460007047704770B504004FF0000503D0206C32
:10247000002610B107E0012070BD204600F01CF8D6
:10248000666484F83C60206CC00610D4206C20F494
:10249000885040F0020020642046FFF75FFD66642C
:1024A000206C20F0020040F00100206400E00125D3
:1024B00084F83C60284670BD70B586B0064614218D
:1024C0006846FEF79FF824493068884241D1234886
:1024D0000025016841F48071016000681F4900F423
:1024E000807014390590086840F00400086008689E
:1024F00000F004000590086840F0020008600868D9
:10250000032400F0020005900C208DE8310069469C
:10251000134800F055FB02208DE831006946114850
:1025200000F04EFB114C1048C4E900050015A560F1
:10253000C4E90350800060618000C4E9060525629B
:102540002046656200F0D4F908B1FFF796FEB46347
:10255000A66306B070BD0000002001404438024070
:10256000000802400004024010640240B80300204A
:10257000F8B5044600200E46009094F83C1001295E
:1025800007D0012184F83C1021688B68DB0702D05A
:1025900011E00220F8BD8B6843F001038B603649DF
:1025A000364B0968B1FBF3F101EB410100E0491E34
:1025B00000910029FBD121688B68DB0503D58B686E
:1025C00023F480738B6021688B68DB0749D0236C10
:1025D00040F20165AB4343F48073236449684905C5
:1025E00005D5216C21F4005141F480512164216C06
:1025F000C90404D5616C21F00601616400E06064E7
:1026000084F83C00A16B1F481D4DC863A16B1E4898
:102610000864A16B1D48C86421686FF0220008603F
:102620002068416841F0806141602068816841F420
:10263000807181602168134632464C31A06B00F0F6
:10264000C1F96868C006206802D01149884210D1DB
:10265000816811F0405F0CD1816841F08041816058
:1026600007E0206C40F010002064606C40F0010036
:1026700060640020F8BD00001C00002040420F00F4
:1026800000230140CF1E0008531F00083D1F000813
:10269000002001402DE9F0410446876D00F092FBD7
:1026A000064694F835000025022806D08020606593
:1026B00084F834500120BDE8F0812068016821F0E1
:1026C000160101602068416921F080014161206CA0
:1026D00008B9A06C20B12068016821F008010160F0
:1026E0002068016821F0010101600CE000F06AFB44
:1026F000801B052807D920206065032084F8350059
:1027000084F83450D7E720680068C007EED194F809
:102710005C103F208840B860012084F8350084F8C0
:1027200034500020C7E790F83510022903D08021EB
:10273000416501207047052180F835100068016867
:1027400021F0010101600020704790F835007047CA
:102750002DE9F84304464FF00009CDF80090634896
:102760004FF41651A56D0068B0FBF1F72E6894F890
:102770005C10082000FA01F131420FD021680A688C
:1027800052070BD50A6822F004020A6094F85C1024
:102790008840A860606D40F00100606594F85C10AE
:1027A0004FF0010808FA01F0304208D02168496969
:1027B000090604D5A860606D40F00200606594F8D9
:1027C0005C1004208840304208D0216809688907DD
:1027D00004D5A860606D40F00400606594F85C105A
:1027E00010208840304218D021680968090714D5A4
:1027F000A86020680168490304D50068000308D573
:10280000A16C07E00168C90503D4016821F0080143
:102810000160216C09B12046884794F85C102020A3
:102820008840304231D021680968C9062DD5A8609A
:1028300094F8350005282068016806D0490347D57B
:10284000006800031DD4616C1CE021F016010160DA
:102850002068416921F080014161206C08B9A06CB9
:1028600020B12068016821F00801016094F85C1033
:102870003F208840A86084F8358084F83490216D2A
:102880001FE0E16B09B120468847606D00282BD01E
:10289000606DC00714D0052084F8350020680168F9
:1028A00021F0010101600098401C0090B84203D85B
:1028B00020680068C007F6D184F8358084F8349029
:1028C000E16C002910D001B02046BDE8F043084774
:1028D0000168C905D5D4016821F01001016084F8B0
:1028E000358084F83490CCE7BDE8F8831C000020E4
:1028F0002DE9F041044600F065FA06465CB102207D
:1029000084F83500002584F834502068016821F0EF
:10291000010101600DE00120BDE8F08100F052FAF4
:10292000801B052805D920206065032084F8350028
:10293000F2E720680068C007F0D1226811682048DB
:102940000140D4E901031843D4E903363343184363
:1029500063691843A3691843E3691843236A18435A
:102960000843616A042903D1D4E90B1319430843CE
:10297000106020684069666A20F0070130460E4307
:10298000012704280CD1A06A0643E06A40B1204622
:10299000FFF70EFC20B14020606584F83570BAE77F
:1029A000206846612046FFF7EFFB94F85C203F214A
:1029B00091408160656584F835700020ACE70000C7
:1029C0003F8010F02DE9F0410446866D90F8340008
:1029D000002501280DD0012084F8340094F83570CA
:1029E0000020012F07D084F8340002252846BDE8D6
:1029F000F0810220FBE7022784F8357060652046ED
:102A0000FFF700FC94F85C103F208840B06020681D
:102A1000016841F016010160206C20B12068016856
:102A200041F0080101602068016841F00101016086
:102A3000DCE7000070B5054600F0C4F94FEA000479
:102A400000F0C0F9001BA842FAD370BD2DE9F04197
:102A500002464E4C4FF4007100274B4801264C4D66
:102A6000A4F101088A427DD00CDC042A67D0102A28
:102A700052D0202A13D1202100F092F9012843D00E
:102A800027704FE04FF480518A420CD0C9008A422F
:102A900005D100F085F9012803D0AF706F71BDE852
:102AA000F081AE70FBE73B4A1268526A4446C8F8B0
:102AB000082000F075F9012805D0D4E90201884208
:102AC00004D3401A07E0A068E060E8E74FF6FF7221
:102AD000511A0844401C206105F03EF910EE100A1E
:102AE0002D4984ED050A8842D9DA6E702B4801F031
:102AF000EDF92A4941F63F700A68D062C860BDE826
:102B0000F041084601F0ACB9267098F8000000B119
:102B1000401E88F80000C2E7102100F041F90128AA
:102B200006D0677003F080FBBDE8F04103F03ABDCA
:102B3000667098F800000528EBD0401CE9E7DFF844
:102B400060800421404600F02BF901280DD00421BB
:102B5000404600F025F90028A1D1E87838B10020DE
:102B6000E87000E005E0A77099E7A67097E70120FC
:102B7000F6E70C4800F014F9012801D0E7708EE761
:102B8000E670082028728AE700040240F90000205D
:102B9000344A00204C0600200000484494060020DF
:102BA000000C024000080240044910B50A680242C5
:102BB00002D00860FFF74AFF10BD0000143C01403E
:102BC0002DE9F84FDFF8B8A10022012403254FF0CA
:102BD0000F090AF1040BAAF1040E00BF0B6804FAF6
:102BE00002F63340B34273D10F7907F00307012F88
:102BF00001D0022F16D187684FEA420805FA08FC77
:102C000027EA0C07D1F80CC00CFA08FC4CEA070CB8
:102C1000C0F808C04768B7430E79C6F3001696405F
:102C20003E4346600E79F643B6070DD0C76856009E
:102C300005FA06FC27EA0C07D1F808C00CFA06FCD6
:102C40004CEA070CC0F80CC00E7906F00306022E01
:102C500010D1D60800EB8608D8F8206057074FEA55
:102C6000D76C09FA0CF7BE430F6907FA0CF7374324
:102C7000C8F8207006684FEA420C05FA0CF7BE430C
:102C80000F7907F0030707FA0CF7374307604E6820
:102C900016F4403F6DD03B4E376847F480473760AD
:102CA000366822F0030706F480460096364E07EB9E
:102CB000060CDCF8086897073F0F09FA07F826EAC0
:102CC0000806DFF8C880404503D14FF000081EE039
:102CD0004FE0DFF8BC80404502D14FF0010816E01C
:102CE000DFF8B080404502D14FF002080FE0DFF876
:102CF000A880404502D14FF0030808E0DFF89C802F
:102D0000404502D14FF0040801E04FF0070808FAEF
:102D100007F848EA0608CCF80888DAF80060574651
:102D2000D1F804C09E435FEACC2C00D51E433E6020
:102D3000DBF800605F46D1F804C09E435FEA8C2C4C
:102D400000D51E433E60DEF800607746D1F804C02F
:102D50009E435FEA8C3C00D51E433E60084F083F0F
:102D60003E68D1F804C09E435FEACC3C00D51E43C8
:102D70003E60521C102AFFF431AFBDE8F88F00000E
:102D8000083C01404438024000300140000002404D
:102D90000004024000080240000C02400010024003
:102DA0000069084000D001207047426921EA02030F
:102DB0000A4043EA0241816170470AB1816170476C
:102DC0000904FBE7014880687047000010000020FC
:102DD000704770472DE9F047026800215368C66AC2
:102DE00090F83E4090F83D50102C12D0402C10D05E
:102DF000046C002C7DD05469E443A6077AD4DE43EA
:102E0000B60577D4036C03B19169BDE8F04702F0D1
:102E100015BB976951694FF42A0CC9435FEAC17821
:102E20004FF02A4904D066452AD04E4528D010E0FC
:102E3000DE43B6050DD4C16A614501D1012103E02D
:102E4000C16A494501D10821C162BDE8F04702F0DD
:102E500089B90E0716D4DE43B60513D4416CC9B246
:102E60001161416B09B1C96B29B9816B002907D088
:102E7000C96B002904D00068416841F400614160D9
:102E8000BDE8F0878E0706D4DE43B60503D4BDE85F
:102E9000F04702F0DBB8FE43526876074FEA025271
:102EA0001DD4002AECDB0A0608D4DA43520505D407
:102EB000490705D5BDE8F04702F06CB84907DFD4F3
:102EC000D9438905DCD4212D05D0402CD8D1BDE8CB
:102ED000F04702F08DB9BDE8F04702F019B8002ABA
:102EE000CEDB4A060BD4DA43520508D4490708D58D
:102EF00001E00DE00EE0BDE8F04701F08FBF4907AB
:102F0000BED4D9438905BBD4BDE8F04701F019BF51
:102F1000916970E7E10606D4D943890503D4BDE879
:102F2000F04702F0AFBA2821212D27D0292D25D036
:102F3000650655D4DD436D0552D4640752D590F82B
:102F40003D30448D002C9BD01269446A2270426A45
:102F5000521C4262428D521E4285428D002A8FD100
:102F60002A2B8DD10268536823F480635360222298
:102F7000026380F83D1000F01FFB81E7250623D493
:102F8000DD436D0520D4640720D590F83D30448D95
:102F9000002CF2D0446A24781461426A521C4262C6
:102FA000428D521E4285428D002AE6D1292BE4D162
:102FB0000268536823F4806353602122026380F81F
:102FC0003D1000F0FAFA5BE76107D6D4D9438905D2
:102FD000D3D4418D0029D0D0416A097811610AE02B
:102FE0006107CAD4D9438905C7D4418D0029C4D00B
:102FF0001169426A1170416A491C4162418D491E42
:1030000041853DE77047000070B5040025D094F875
:103010003D00002520B984F83C50204600F058FAC5
:10302000242084F83D002068016821F0010101603E
:103030002068016841F4004101602068016821F4C2
:103040000041016000F03EFC4D4A6168914201D8A8
:103050004C4900E04C49884201D2012070BD4B49E7
:103060002368B0FBF1F15E6826F03F060E435E6018
:103070006368934206D94FF4967359434FF47A73B9
:10308000B1FBF3F12368491C1E6A26F03F06314369
:1030900019626168914210D84900401EB0FBF1F2FC
:1030A000521CC2F30B02042A01D2042022E0B0FB1E
:1030B000F1F0401CC0F30B001CE0A268F2B301EB7E
:1030C000C10303EB0116431EB3FBF6F35B1C43F491
:1030D00080431B0549D092B301EBC10202EB011101
:1030E000401EB0FBF1F0401CC0F30B0040F48040E8
:1030F00040F400402168CA694CF6FF739A431043BC
:10310000C861D4E9071001432068026822F0C002B8
:1031100011430160D4E9030101432068826848F249
:10312000FF339A4311438160D4E9050108432168C4
:10313000CA6822F0FF021043C86001E00EE016E00A
:103140002068016841F0010101602564202084F8B5
:103150003D00256384F83E50002070BD01EB410620
:10316000431EB3FBF6F35B1CB3E70120C2E701EBA0
:103170004101401EB0FBF1F0401CC0F30B00B7E76B
:10318000A086010080841E0000093D0040420F001F
:103190007047704770477047704700002DE9FF4F38
:1031A00083B09A46DDE9118793460446DDF84090E6
:1031B000FFF708FE054694F83D00202870D119233A
:1031C000012274492046009502F036FA0028F5D114
:1031D00094F83C00012863D0012084F83C0020686A
:1031E0000168C90703D1016841F00101016020684D
:1031F000016821F400610160222084F83D00402034
:1032000084F83E0000262664C4F82490A4F82A809E
:10321000608D20856048E062CDE9007553465A46CE
:103220002046049902F038F8002879D1208DD0B1D9
:10323000012821D00228206824D0416980690090AB
:10324000208D032866D801282BD0544902283B46FC
:103250004FF00002009557D08846204602F0ECF966
:1032600000285DD13AE020684169816900910168D8
:1032700041F4007101607DE02068016821F4806103
:103280000160F0E7016821F4806101602068016855
:1032900041F400610160206841698069009069E043
:1032A00075E02A463946204602F06CFA88BB54E0A5
:1032B0002068016841F40071016020680069616A5A
:1032C0000870606A401C6062218D491E2185618DF5
:1032D000491E618521680969017042E02068016822
:1032E00021F48061016020680069616A0870606A89
:1032F000401C6062208D401E2085608D401E6085D0
:103300003B46002241460095204602F095F900B95F
:10331000CEE705E02A463946204602F033FA18B1D6
:10332000012007B0BDE8F08F20680069616A08706D
:10333000606A401C6062208D401E81B22185608DD4
:10334000401E608520684269D243520712D4032987
:1033500003D1016821F48061016020680069616A1D
:103360000870606A401C6062208D401E2085608D60
:10337000401E6085208D00287FF462AF202084F8F5
:103380003D0084F83E6084F83C600020C9E70220DC
:10339000C7E70000020010000000FFFF040001006A
:1033A0002DE9FF4F83B09A46DDE911979346044615
:1033B000DDF84080FFF706FD054694F83D00202823
:1033C0007FD11923012240492046009502F034F9AB
:1033D000002876D194F83C00012872D0012084F8AE
:1033E0003C0020680168C90703D1016841F0010170
:1033F00001602068016821F400610160212084F8E7
:103400003D00402084F83E0000262664C4F8248055
:10341000A4F82A90608D20852C48E062CDE90075E3
:1034200053465A462046049901F0B4FF70B930E083
:103430002A463946204602F0DDF958B1206C0428AE
:1034400004D12068016841F400710160012007B0D7
:10345000BDE8F08F606A216800780861606A401CEE
:103460006062218D491E89B22185628D521E62855E
:1034700022685369DB435B070BD469B100781061A4
:10348000606A401C6062208D401E2085608D401E59
:103490006085208D0028CBD12A463946204602F08F
:1034A0009FF80028CAD154F83D0B016841F400711F
:1034B0000160202004F81E09E67766770020C6E741
:1034C000FFE70220C3E70000020010000000FFFF3A
:1034D0002DE9F04387B0064614216846FDF792F8BF
:1034E0003049306888425AD12F480024016841F0A1
:1034F000020101600068694600F0020005904FF487
:10350000407000901220CDE90104032003900420B4
:1035100004902648FFF754FB23481030016841F41B
:10352000001101600068234D00F400100590204850
:1035300028604705C5E901744FF48068C5E9034870
:103540004FF480796C61C5E906492C6228466C62AB
:10355000FFF7CEF908B1FEF790FEB563AE63154DE7
:1035600013486035A830E5E802074020A5E81101BE
:10357000104845F814496030C5E906492C626C6270
:10358000FFF7B6F908B1FEF778FE75630022052152
:103590001F20AE6300F0AAF81F2000F099F807B0D2
:1035A000BDE8F0830054004030380240000402407F
:1035B000106002406C040020704770470248816828
:1035C0000278114481607047100000200B4810B54C
:1035D000016841F400710160016841F4806101609B
:1035E000016841F480710160032000F09FF80F2012
:1035F00000F006F800F050F8002010BD003C02403A
:1036000030B505461F4887B00024016841F0080125
:103610000160006806A900F00800009001A800F011
:1036200031F90498A8B100F04DF940001649174A45
:10363000B0FBF1F11648491E026040F2E732C0E9E2
:103640000324C0E90114846100F082FB040003D06C
:1036500015E000F037F9E9E70D4800F001FC04003F
:103660000DD1322000F034F8102D07D20022294667
:10367000322000F03BF80748056000E0012407B065
:10368000204630BD4038024040420F00000C004050
:10369000EC080020140000200C4882B0016841F4BE
:1036A00080410160006800F4804000900748001FDE
:1036B000016841F0805101600068002200F08050F4
:1036C00000900F21901E02B000F010B84438024064
:1036D000002809DB00F01F02012191404009800011
:1036E00000F1E020C0F8001170470000F0B40E4B6C
:1036F0001B680C46C3F30223C3F10705042D00D950
:103700000425191D072901D2002300E0DB1E012634
:1037100006FA05F1491E214099409E40761E16404A
:103720003143F0BC03F032BE0CED00E0064900F07E
:10373000070208684FF6FF03184040EA0220034AD8
:1037400010430860704700000CED00E00000FA052F
:103750002DE9F0470E46050065D0DFF81481D8F852
:103760000000F7B200F00700B04207D288F80070FE
:10377000D8F8000000F00700B04254D128683D4C52
:10378000810712D5400703D5206840F4E05020603F
:103790002878000703D5206840F460402060206846
:1037A000A96820F0F000084320602878C0072DD0D9
:1037B000304968680839012812D0022813D003283C
:1037C00011D00968890700292DDA216821F0030149
:1037D00001432160FFF7F6FA814641F2883A0EE094
:1037E00009688903EFE709688901ECE7FFF7EAFA5E
:1037F000A0EB0901514502D90320BDE8F0872068FC
:10380000696800F00C00B0EB810FEFD1D8F8001020
:10381000404601F00701B14207D90770006800F087
:103820000700B04201D00120E7E72878400705D51E
:103830002068E96820F4E0500843206028780007F9
:1038400006D52068296920F4604040EAC100206064
:1038500000F058F82168084AC1F30311515CC840D0
:103860000649086006480068FFF7CAFE0020C4E762
:10387000003C0240083802407CAC00081C000020DC
:10388000140000200F2202600C4A136803F00303A7
:103890004360136803F0F0038360136803F4E0539C
:1038A000C36012684FF4E05303EAD2020261044895
:1038B000006800F007000860704700000838024008
:1038C000003C02400448054900680968044AC1F305
:1038D0008221515CC84070471C000020083802401B
:1038E0008CAC00080448054900680968044AC1F323
:1038F0004231515CC84070471C000020083802402B
:103900008CAC0008154810B5006810F00C02144883
:1039100013D04110042A0FD0082A0ED10F4C241FB7
:103920002268236802F03F025B0207D52068C0F3DB
:103930008810A0FB010106E0084610BD2168C1F314
:103940008811A1FB00010023FCF74AFD2168C1F3A7
:103950000141491C4900B0FBF1F010BD083802409C
:103960000024F4002DE9F84F04006ED02078DFF831
:103970004C93C007A9F104054AD009F1040001687D
:10398000C1F38101012908D00068C0F38100022839
:103990000AD1D9F80000400206D52868800337D53F
:1039A00060680028E1D033E06068B0F5803F10D057
:1039B000B0F5A02F286810D020F480302860286847
:1039C00020F4802028606068A8B1FFF7FBF9064664
:1039D0000DE0286840F48030F4E740F4802028604F
:1039E000F7E700BFFFF7EEF9801B642873D828685B
:1039F0008003F7D50CE0FFF7E5F9064605E000BFC8
:103A0000FFF7E0F9801B6428F0D828688003F7D41A
:103A10002078DFF8AC8280074FF0000A3ED5A74837
:103A2000001D016811F00C0F08D00068C0F3810080
:103A300002280BD1D9F80000400207D4286880077B
:103A400016D5E068012800D112E033E1E068B8B192
:103A50000120C8F80000FFF7B5F9064605E000BFF1
:103A6000FFF7B0F9801B0228C0D828688007F7D577
:103A70002868216920F0F80040EAC10028600DE0C4
:103A8000C8F800A0FFF79EF9064604E0FFF79AF990
:103A9000801B02281FD828688007F7D420780007E9
:103AA00022D5864F87486169703771B10121016065
:103AB000FFF788F9064604E0FFF784F9801B022827
:103AC00009D838688007F7D50EE0C0F800A0FFF7E6
:103AD00079F9064605E082E0FFF774F9801B0228B9
:103AE0007DD838688007F7D42078400768D5DFF89C
:103AF000CCB100270BF13C0BDBF80000C0000BD46D
:103B0000DBF8001041F08051CBF80010DBF800002A
:103B1000012700F0805000906B4E3068C00510D433
:103B2000306840F480703060FFF74CF9009005E099
:103B3000FFF748F90099401A022850D83068C005AC
:103B4000F6D55E4EA0686C3601280FD00528306887
:103B500010D020F001003060306820F004003060A8
:103B6000A068B8B1FFF72EF900900FE0306840F080
:103B70000100F4E740F004003060F7E7FFF722F9B6
:103B80000099411A41F28830814266D83068800736
:103B9000F4D50EE0FFF716F9009007E0FFF712F9F1
:103BA0000099411A41F28830814256D83068800726
:103BB000F4D42FB1DBF8001021F08051CBF80010C5
:103BC000A069C8B33D49091D0968C1F381010229F3
:103BD0004AD00228504607D0C8F8600000E03CE018
:103BE000FFF7F0F804463BE04746C8F86000FFF7EF
:103BF000E9F8064605E000BFFFF7E4F8801B02285D
:103C00002BD828688001F7D4D4E907010843A16ABA
:103C10002E4A490802EB0141626A41EA82110843D7
:103C200094F82C1040EA0161C9F8001001203866B0
:103C3000FFF7C8F8044606E03EE000BFFFF7C2F811
:103C4000001B022809D828688001F7D534E000BF9E
:103C5000FFF7B8F8001B022802D90320BDE8F88F4F
:103C600028688001F4D427E00128F7D0D9F80000B3
:103C7000E26900F4800191421CD1226A00F03F0108
:103C8000914217D147F6C071626A0140B1EB821FC1
:103C900010D1A26A4FF0FF3300F4403103EB52021F
:103CA000B1EB024F06D194F82C1000F07060B0EB2D
:103CB000016F01D00120D1E70020CFE70438024096
:103CC00000004742800E4742007000400000FFFFA6
:103CD0007047704770B590F83C20012A2CD0012421
:103CE00080F83C40022280F83D2003685A689D68B5
:103CF00022F070060A6832435A60104B02689A42FA
:103D00000ED0B2F1804F0BD00D4B9A4208D00D4B24
:103D10009A4205D00C4B9A4202D00C4B9A4204D1E5
:103D2000496825F080031943916080F83D400021E7
:103D300080F83C10084670BD022070BD00000140B4
:103D40000004004000080040000C0040004001401A
:103D500010B5040003D094F83D0010B107E0012035
:103D600010BD002084F83C00204600F01FF802201F
:103D700084F83D00211D206802F004FF012084F832
:103D8000460084F83E0084F83F0084F8400084F840
:103D9000410084F8420084F8430084F8440084F829
:103DA000450084F83D00002010BD000008B5016802
:103DB000B1F1804F12D0264A264891421FD10168A6
:103DC00041F4803101600068002200F480300090EE
:103DD00005211820FFF78AFC182033E01D48001F3A
:103DE000016841F0010101600068002200F001005B
:103DF000009005211C20FFF779FC1C2022E0164AC8
:103E000091420ED1016841F4003101600068002246
:103E100000F40030009005211920FFF767FC1920FD
:103E200010E00E4A914211D1016841F480210160F5
:103E30000068002200F48020009005211A20FFF77E
:103E400055FC1A20BDE80840FFF742BC08BD000041
:103E50000040014044380240004401400048014015
:103E600090F83D10012901D001207047022180F80F
:103E70003D100168CA6842F00102CA6000680E493C
:103E800088420ED0B0F1804F0BD00C49884208D048
:103E90000B49884205D00B49884202D00A49884222
:103EA00004D1816801F00701062903D0016841F0BF
:103EB0000101016000207047000001400004004043
:103EC00000080040000C0040004001400168CA6842
:103ED00022F00102CA6001680A6A41F211131A4213
:103EE00007D10A6A9B101A4203D10A6822F0010224
:103EF0000A60012180F83D100020704770B504462B
:103F000090F83C000025012817D0012684F83C6079
:103F1000022084F83D002068826822F0770222F4B3
:103F20007F4282600868502838D00DDC20284FD0AE
:103F300005DC90B3102811D14AE0022070BD302872
:103F400046D040280AD13BE060282FD070280DD001
:103F5000B0F5805F03D0B0F5005F12D0012584F882
:103F60003D60002084F83C00284670BDCB68D1E954
:103F70000121206802F065FE2068816841F0770128
:103F800009E0CB68D1E90121206802F05AFE2068DF
:103F9000816841F480418160E1E719E0CA684968BD
:103FA000206802F003FF5021206806E0CA684968D3
:103FB000206802F00CFF6021206802F04CFECEE782
:103FC000CA684968206802F0F1FE40212068F4E7E1
:103FD000226801461046F0E72DE9F0410D46040045
:103FE00003D094F83D0018B108E00120BDE8F0814D
:103FF000002084F83C00204600F040F8022084F8BD
:104000003D002068816844F2070291438160211DD0
:10401000206802F0B7FD226890689169166A2B68E3
:10402000AF69034340F20330814341EA0721A868A6
:10403000EF6908434FF6FC418843E96840EA0720EE
:10404000014328692F6A000140EA07300843696884
:104050006D6926F0AA0646EA051529439360226891
:10406000906154F8460B0162012004F81F09E075C5
:104070002076E0762077A0750020B7E730B587B0CE
:10408000044614216846FCF7BDFA324D236800222D
:10409000314902243148AB4233D12F4B14331D68D0
:1040A00045F001051D601B6803F0010305930B68D3
:1040B00043F001030B60096801F0010105914FF421
:1040C00040710091CDE901420121CDE9032169460A
:1040D000FEF776FD002205211820FFF707FB1820C8
:1040E000FFF7F6FA002205211920FFF7FFFA192041
:1040F000FFF7EEFA002205211A20FFF7F7FA1A203F
:1041000023E0174DAB4222D1134B10331D6845F00D
:1041100002051D601B6803F0020305930B6843F062
:1041200001030B60096801F001010591C0210091B4
:10413000CDE90142CDE903246946FEF741FD0022A5
:1041400005211D20FFF7D2FA1D20FFF7C1FA07B0A5
:1041500030BD000000000140303802400000024045
:104160000004004070B590F83E60044690F83F505F
:1041700090F8423090F84320022021B104290ED05B
:10418000012E1BD114E0012E18D1012B16D184F879
:104190003E0084F8420001220021206820E0012D29
:1041A0000CD1012A0AD184F83F0084F8430014E0BE
:1041B000012D03D1012B01D1012A01D0012070BDB5
:1041C00084F83E0084F83F0084F8420084F84300FD
:1041D00001220021206802F027FD0122042120682D
:1041E00002F022FD2068016841F001010160002019
:1041F00070BD70472DE9F04104460068C668056946
:104200004FF00007A90713D5B10711D5F91E0161B9
:1042100001202077206880698007204602D0FFF7C0
:10422000E8FF04E000F0A6F8204600F038F9277710
:10423000680716D5700714D521686FF0040008616F
:10424000022020772068806910F4407F204602D049
:10425000FFF7CFFF04E000F08DF8204600F01FF9D3
:104260002777280715D5300713D521686FF0080088
:104270000861042020772068C0698007204602D0AA
:10428000FFF7B7FF04E000F075F8204600F007F9EB
:104290002777E80616D5F00614D521686FF01000D0
:1042A0000861082020772068C06910F4407F20460C
:1042B00002D0FFF79EFF04E000F05CF8204600F01B
:1042C000EEF82777E80708D0F00706D021686FF0EE
:1042D00001000861204600F03BF9280608D53006A9
:1042E00006D521686FF0800008612046FFF7F0FCDA
:1042F000680608D5700606D521686FF04000086191
:10430000204600F053F9A8060AD5B00608D5216862
:104310006FF0200008612046BDE8F041FFF7D9BCEE
:10432000BDE8F08110B586B0044614216846FCF75C
:1043300069F92068B0F1804F15D10C48002102685E
:1043400042F001020260006800F0010005900320C5
:1043500000900220CDE901010120CDE9031069465A
:104360000348FEF72DFC06B010BD000030380240B7
:1043700000000240704770B5044690F83C000026EB
:104380000D4601280FD0012084F83C006AB1042AB0
:104390001DD0082A2FD00C2A3FD00126002084F8F7
:1043A0003C00304670BD022070BD206802F05CFC0D
:1043B0002068816941F0080181612068816921F0EC
:1043C00004018161206881692A69114311E0206834
:1043D00002F072FC2068816941F40061816120680B
:1043E000816921F480618161206881692A6941EADB
:1043F00002218161D2E7206802F08AFC2068C1694D
:1044000041F00801C1612068C16921F00401C16166
:104410002068C1692A69114311E0206802F0A4FCF8
:104420002068C16941F40061C1612068C16921F45B
:104430008061C1612068C1692A6941EA0221C161C4
:10444000ACE710B5040003D094F83D0010B107E0CC
:10445000012010BD002084F83C00204600F01EF82A
:10446000022084F83D00211D206802F08BFB012012
:1044700084F8460084F83E0084F83F0084F8400049
:1044800084F8410084F8420084F8430084F8440032
:1044900084F8450084F83D00002010BD7047704747
:1044A00010B50446022249B104290ED0082913D0C0
:1044B00094F84100012816D0012010BD94F83E0068
:1044C0000128F9D184F83E200FE094F83F0001283C
:1044D000F2D184F83F2008E094F840000128EBD1A5
:1044E00084F8402001E084F841200122206802F095
:1044F0009BFB12492068884203D1426C42F400427F
:104500004264206888420ED0B0F1804F0BD00C4935
:10451000884208D00B49884205D00B49884202D016
:104520000A49884204D1816801F00701062903D0B5
:10453000016841F001010160002010BD0000014050
:104540000004004000080040000C00400040014012
:1045500010B5124A0168914203D1BDE81040FFF73F
:104560002DB80F490F4C88420AD1E16E04F15C006E
:10457000884704F17000D4F88010BDE81040084767
:104580000949884208D1C520207400206070BDE828
:1045900010400846FFF79ABC10BD0000000C004018
:1045A00004060020344A002094060020704770471B
:1045B00010B504460068406994F84110C0F3C0107B
:1045C000212911D180B12068143050E8001F21F05A
:1045D000800140E80012002AF5D1A06B08B1FEF777
:1045E00059F8204602F0BCFC2068406994F842105B
:1045F000C0F38010222911D180B12068143050E816
:10460000001F21F0400140E80012002AF5D1E06BC4
:1046100008B1FEF73FF8204602F07BFC002010BDF9
:1046200070470000F8B5016804460868CA684B691D
:1046300010F00F0F4FF0000559D003F0010602F4FF
:104640009077374365D0C10705D0D10503D5616C9C
:1046500041F001016164410705D5D90703D0616CC0
:1046600041F002016164810705D5D90703D0616C6F
:1046700041F004016164010707D502F020013143D4
:1046800003D0616C41F008016164616C00293AD08B
:10469000800604D5900602D5204602F0A9FC2068C9
:1046A0004069616CC0F38010090700D460B32046F4
:1046B00002F02FFC20684069400621D520681430A4
:1046C00050E8001F21F0400140E80012002AF5D117
:1046D000E06BA8B16E490165E06BFEF724F8002895
:1046E00011D0E06B016D01B0BDE8F04008478306D2
:1046F0000FD593060DD52046BDE8F84002F078BCF2
:104700002046FFF78DFFF8BD2046FFF789FF65645F
:10471000F8BD266B2023012E7DD1C6067BD5D6069B
:1047200079D508684868009048694FF0020640064D
:1047300041D5E16B086840680004000CE8D0A28D08
:104740008242E5D9E085C869B0F5807F2DD0206828
:104750000C3050E8001F21F4807140E80012002A5C
:10476000F5D12068143050E8001F21F0010140E825
:104770000012002AF5D12068143050E8001F21F003
:10478000400140E80012002AF5D184F84230256348
:1047900020680C3050E8001F21F0100140E80012A2
:1047A000002AF5D1E06BFDF775FF6663A08DE18D02
:1047B000401A81B22AE0A08DE18D401A81B2E08DCD
:1047C0000028A5D00029A3D022680C3252E8000F9F
:1047D00020F4907042E80007002FF5D120681430D3
:1047E00050E8002F22F0010240E80027002FF5D109
:1047F00084F84230256320680C3050E8002F22F006
:10480000100240E80023002BF5D166632046FFF735
:10481000CEFEF8BDFFE705062BD5150629D594F881
:1048200041002128F5D1A068B0F5805F01D1206951
:10483000B0B1206A411C2162216800784860E08C98
:10484000401E0004000CE084E3D12068C16821F020
:104850008001C1602068C16841F04001C160D8E7B3
:10486000206A0088C0F308004860206A801C20622B
:10487000E5E74006CDD55006CBD5CA68204622F0E4
:104880004002CA6084F8413000F014F9C1E700002A
:10489000156E000870B5040004D094F8410000259E
:1048A00010B106E0012070BD84F84050204600F0B1
:1048B00023F8242084F841002068C16821F40051C5
:1048C000C160204602F0F6FB2068016921F49041A6
:1048D00001612068416921F02A0141612068C168B5
:1048E00041F40051C1606564202084F8410084F8DF
:1048F00042006563002070BD2DE9F04F87B004468B
:1049000014216846FBF77EFE5B485A4E236802215D
:104910005A4A002507154FF0400B4FF4807AB342F6
:104920004ED1554B10331E6846F400361E601B688E
:1049300003F400330593036843F001030360006848
:1049400000F0010005900C208DE823000720CDE940
:10495000035069461046FEF733F94A4E48484FF077
:104960000069C6E903577561C6E9065A3562756282
:1049700086E8010AD0463046FDF7BAFF08B1FDF7D8
:104980007CFCA663B4633F4E3D4860361838306007
:10499000C6E90195C6E903577561C6E9065835624F
:1049A00030467562FDF7A4FF08B1FDF766FCE663CB
:1049B000002205212620B463FEF798FE262053E04E
:1049C000314EB34252D12C4B14331E6846F02006B0
:1049D0001E601B6803F020030593036843F0010386
:1049E0000360006800F0010005904FF4C0508DE8AE
:1049F0002300032003900820049069461046FEF728
:104A0000DFF8204E2148C0364FF020693060C6E9FB
:104A10000195C6E903577561C6E9065AB84635627D
:104A2000574630467562FDF763FF08B1FDF725FC78
:104A3000E663B463164E1548C6E903587561C6E9C6
:104A4000065735627830756286E8010A3046FDF710
:104A50004FFF08B1FDF711FCA66300220521472096
:104A6000B463FEF743FE4720FEF732FE07B0BDE811
:104A7000F08F000000440040303802400000024047
:104A8000A06002406C07002000140140286402402E
:104A90008C08002090F84230202B01D00220704773
:104AA00021B11AB10023036302F08ABB01207047D1
:104AB000704770477047000070B50122074D94029F
:104AC00021462846FEF779F9322003F0DFF9214626
:104AD0002846BDE870400022FEF76FB90000024092
:104AE000FEE700000148FEF775B900001804002039
:104AF00038B5806B002190F83D202B4B46F2A8146E
:104B00001B68B3FBF4F3C3EBC30303EB8303009312
:104B10003BB15B1E009303681B689B0505D5009B9A
:104B2000F6E7036C43F020030364436B03B1D963DE
:104B3000836B03B1D96303681C6824F480641C6030
:104B40004185436B03B11965836B03B11965036834
:104B50001C6824F001041C6090F83D402023602C68
:104B60000BD0282434EA02020FD080F83D3080F8C0
:104B70003E1000BFFEF746FA38BD80F83D3080F8A1
:104B80003E100164FEF724F938BD0268136843F053
:104B9000010313600268136843F4806313600163C8
:104BA00080F83D40E6E700001C00002000684169F5
:104BB000C943090601D400210161704770B504465C
:104BC00090F83D0094F83E10102901D0402906D1FC
:104BD000222804D121680A6822F400620A60282190
:104BE00031EA00024FF000054FF0200626D0216880
:104BF0004968090505D4602803D084F83D6084F82D
:104C00003E50256320684168090537D5416821F485
:104C100000614160606B90F835203C49012A11D059
:104C20000165606BFDF77FFD38B32068016821F0F6
:104C30000101016084F83D60606B1CE0256384F82D
:104C40003D10DFE7A06B0165A06BFDF76CFDA0B127
:104C500020684169C943490605D40069616A087042
:104C6000606A401C60622068016821F001010160F7
:104C700084F83D60A06B016D884710E094F83D100A
:104C8000602910D04169C943490605D40069616AA9
:104C90000870606A401C60622046FEF7B3F9206C21
:104CA000C1071CD115E084F83D6025644169C94302
:104CB000490605D40069616A0870606A401C606238
:104CC0002068016821F0010101602046FEF780F8AC
:104CD000E5E7810703D4410701D4000704D5206824
:104CE000416821F4E061416094F83D00216C49077E
:104CF0000BD5282809D10648E062256384F83D6079
:104D000084F83E502046FEF743FA70BDF14A000891
:104D10000000FFFF01684A69D24352050FD46FF4C7
:104D200080624A61002140F8301F20224273817363
:104D3000026942F004020261017301207047002001
:104D4000704710B5C26A438D0168042B06D0438DAD
:104D5000032B08D0438D022B1DD012E04A6822F4A9
:104D600080624A600CE04B6823F480634B60042A45
:104D700006D0022A04D001680A6822F480620A6020
:104D800001680969426A1170416A491C4162418D9A
:104D9000491E418510BD012A34D0102A32D0042A80
:104DA00034D0022A32D00B6843F400730B600168E0
:104DB0000969436A1970416A491C4162438D5B1E4F
:104DC000438503681B690B70416A491C4162418D30
:104DD000491E418501684B6823F440734B602021D4
:104DE00080F83D1090F83E300021402B80F83E10B6
:104DF00010D0082A02D0202A00D012210163FEF729
:104E0000C8F910BD0B6823F48063CFE70B6843F447
:104E10008063CBE70163FEF7BEF910BD38B590F8AB
:104E20003D10222910D1C36A418D03290DD9016893
:104E30000969426A1170416A491C4162418D491EEB
:104E40004185418D032906D038BDC26A022A02D0AD
:104E5000012906D029B10068416821F480614160D0
:104E600038BD2A4A46F2A81400211268B2FBF4F2B7
:104E700002EB8202009202682024009D6D1E0095C4
:104E800026D01568AD05F8D4156825F48065156041
:104E90000268556825F4E065556002681269456A44
:104EA0002A70426A521C4262428D521E428580F82C
:104EB0003D4090F83E2080F83E10402A21D0082B3B
:104EC00002D0202B00D012210163FEF762F938BD19
:104ED000036C43F020030364536823F4E0635360DE
:104EE00002681269436A1A70426A521C4262428D19
:104EF000521E428580F83D4080F83E10FEF782F851
:104F000038BD0163FEF747F938BD00001C000020E2
:104F100010B5C26A90F83D1021290BD1418D51B1D5
:104F2000416A026809781161416A491C4162418DF8
:104F3000491E418510BD20230021082A13D0202AB4
:104F400011D012F5803F0ED00268546824F4E0645A
:104F500054601122026380F83E1080F83D3000BF9B
:104F6000FEF718F910BD0268546824F4E064546038
:104F70000268146844F400741460016380F83D30E2
:104F800090F83E2080F83E10402AE9D1FEF704F95F
:104F900010BD000010B590F83D1090F83E30C26A88
:104FA000048DB4B1212903D0402B11D122290FD176
:104FB000418DE1B390F83E10402942D0416A026829
:104FC00009781161416A491C4162418D491E418540
:104FD00010BD2129E8D120230021082A13D0202A3E
:104FE00011D012F5803F0ED00268546824F4E064BA
:104FF00054601122026380F83E1080F83D3000BFFB
:10500000FEF7C8F810BD0268546824F4E0645460E8
:105010000268146844F400741460016380F83D3041
:1050200090F83E2080F83E10402AE9D100E002E0EE
:10503000FEF7B2F810BD0068416821F4806141605C
:1050400010BDBDE8104000F0D3B8000078B590F86E
:105050003E50C26A036B90F83D6000240168222E26
:105060007AD1066D0EB9402D76D0056D1DB9056952
:10507000B5F5404F09D0458D05B3468D384D012E0D
:105080000ED0438D022B3AD05DE04A698A690092C6
:105090000A6842F480720A60016D491C016578BD9E
:1050A000AA4213D10A6822F480620A6001684A6841
:1050B000120503D50A6822F4806216E04A698A69FB
:1050C00000920A6842F400720A6039E0082A10D09F
:1050D000202A0ED0122B0AD0042A03D0022A01D093
:1050E000102AE7D10A6842F480620A6024E0012AAB
:1050F000E0D00A6822F480620A600168DEE7042AD0
:1051000021D0022A1FD0102A1DD00B6823F48063FF
:105110000B6001680B6843F400630B6001684B6827
:105120001B0509D5AA4212D0012A10D0082A0ED098
:10513000102A0CD0202A0AD001684A698969009196
:10514000046578BD08E00B6843F48063E5E74A68CE
:1051500042F480524A60EFE7486988690090F0E7BE
:105160000000FFFF90F83E10402910D00169B1F512
:10517000804F19D0016DA9B3016D012910D1416C87
:105180005FF0F10201F4407142EAD11106E0016DD5
:105190000029416C05D0C9B241F0010100680161EC
:1051A000704701F0FE01F9E790F83D102129416CAC
:1051B00009D0C9B241F0010102681161416B29B106
:1051C000C96B49B902E001F0FE01F5E7816B0029E6
:1051D000E6D0C96B0029E3D00068416841F4006162
:1051E00041607047FFE7416CF02201F44071CBE76A
:1051F00010B590F83D10026D4AB1026D012A14D02D
:10520000026D022A16D0BDE81040FFF7CFBCC16C7A
:105210000129816C02D0C1F3072108E00268C9B2FC
:105220001161016D891C016510BD816CC9B20268F4
:10523000116123E022291CD0428D0AB1212920D0FE
:10524000428D002AF0D12129EED101684A6822F46A
:10525000E0624A6001680A6842F400720A60002154
:105260000163202280F83D2080F83E10FDF794FF76
:1052700010BD01680A6842F480720A60016D491C21
:10528000D1E7416A026809781161416A491C4162AB
:10529000418D491E418510BD2DE9F84F0446006837
:1052A00089460B9D01689846174641F4806101606C
:1052B0002068016841F48071016000954FF0011B86
:1052C0000022594620460A9B00F0B6F94FF4007AB6
:1052D00040B120680068C00501D5C4F840A0032093
:1052E000BDE8F88F216809F0FE0008612B462849C7
:1052F00020460A9A00F0E8F9F0BB2068416980690D
:1053000000902A4620460A9900F074FA40B1206CB9
:1053100004283AD12068016841F40071016034E04A
:10532000FEB2B8F1010F09D02168380A08612A4697
:1053300020460A9900F05EFA0028E8D1206806614C
:105340002A4620460A9900F055FA0028DFD1206845
:10535000016841F4807101600095002259462046A1
:105360000A9B00F069F90028B3D1216809F0FF0019
:1053700040F00100086100E007E02B4604492046A8
:105380000A9A00F0A1F90028AAD00120A8E700009D
:10539000020001002DE9F843044600680D46DDE9EE
:1053A000089701689846164641F4807101604B46A3
:1053B00000224FF001112046009700F03DF948B15E
:1053C00020680068C00502D54FF4007020640320F7
:1053D000BDE8F883216805F0FE0008613B464A46B7
:1053E0001549204600F070F988B920684169806944
:1053F00000903A464946204600F0FCF948B1206C3E
:10540000042804D12068016841F400710160012082
:10541000DEE7F5B2B8F1010F09D02168300A086162
:105420003A464946204600F0E5F90028E7D12068D1
:1054300005610020CCE700000200010038B50C46F1
:1054400090F83D2000212825954302680B4605D0A1
:1054500051699169009180F83C3038BD556825F458
:1054600080655560E243540700D50121120601D53D
:10547000828900E0028B80F83C3092B2FDF7A9FCF3
:1054800038BD0000F8B590F83D60044600684168FA
:1054900021F4E061416020680025416900910168C4
:1054A00041F0010101602068016821F48061016020
:1054B00020684168090520D5474F222E48D02A2E62
:1054C00046D0616B096849686185618D19B1216CAD
:1054D00041F004012164416821F400614160606B86
:1054E000FDF733F9012808D0606B0765606BFDF7A5
:1054F0001AF910B1606B016D8847608D08B32068A0
:105500004169C943490708D40069616A0870606A43
:10551000401C6062608D401E608520684169C943FF
:10552000490608D40069616A0870606A401C6062BC
:10553000608D401E6085608D18B1206C40F00400C5
:105540002064206C00B32046BDE8F840FFF736BB6E
:10555000A16B096849686185618D19B1216C41F0C1
:1055600004012164416821F400614160A06BFDF7F2
:10557000ECF80128C1D0A06B0765A06BFDF7D3F84C
:105580000028BAD0A06BB6E72A2E06D125632820C2
:1055900084F83D002046FEF70FF894F83D102020D7
:1055A00028290DD0216B222901D0222E07D1256375
:1055B00084F83D0084F83E502046FDF7FDFFF8BD1D
:1055C0000649E162256384F83D0084F83E50204698
:1055D000FDF7DEFDF8BD0000F14A00080000FFFF06
:1055E00070B516460D4604461EE02046FFF792FBB6
:1055F00008B1012070BD681C16D0FDF7E3FB801BCD
:10560000A84200D885B920684069C04340070BD53F
:10561000002044F8300F20216173A073216941F00C
:10562000200121612073E4E720684069C0434007FE
:10563000DBD4002070BD00002DE9F04798461746E6
:105640000D460446C1F30746DDF820902AE000BF6E
:10565000B8F1FF3F26D0FDF7B5FBA0EB09014145AE
:1056600002D8B8F1000F1DD12068012E16D0806934
:1056700025EA00000004000C12D00020B84211D12D
:10568000002044F8300F20216173A073216941F09C
:105690002001216120730120BDE8F0874069E7E720
:1056A0000120EBE72068012E0AD0806925EA00007E
:1056B0000004000C06D00020B842C9D00020EBE75F
:1056C0004069F3E70120F7E72DE9F04798461646D1
:1056D0000D4604464FF000094FF0200AC1F307477A
:1056E00023E020684069C043400515D42068016864
:1056F00041F40071016021686FF480604861C4F872
:10570000309084F83DA084F83E90216C41F0040173
:10571000216484F83C9021E0701C06D0FDF752FB18
:10572000A0EB0800B04203D816B1012F1FD021E032
:105730002068012F15D0806925EA00000004000CC4
:1057400018D000BF44F8309F84F80DA084F80E9064
:10575000216941F02001216184F80C900120BDE80D
:10576000F087406925EA00000004000CEAD12068B7
:10577000406901E02068806925EA00000004000C0F
:10578000AFD1ECE72DE9F041002590460E460446E6
:10579000202728E04069C043C0060CD454F8301BD1
:1057A0006FF01000486144F810596777A577206AB8
:1057B0002062257714E0FDF705FBA0EB0800B0425E
:1057C00000D886B920684069C04340060BD544F82C
:1057D000305F6773A573206940F020002061257356
:1057E0000120BDE8F08120684169C9434906D1D450
:1057F0000020F6E770B516460D4604461EE020462A
:10580000FFF788FA08B1012070BD681C16D0FDF7BB
:10581000D9FA801BA84200D885B920684069C043E6
:1058200000060BD5002044F8300F20216173A073CF
:10583000216941F0200121612073E4E7206840697B
:10584000C0430006DBD4002070BD00002DE9F04FFE
:105850000F462DED0C8B8DB080460CA906A81E4678
:105860001446DDE924B5DDE922A9CDE900010BAB41
:1058700007AA04A902A802F075FCBDF81800C0052B
:105880007DD59DED070AF8EEC00A9FED6B0AB0EEDC
:1058900000CA60EE809ADDED080AF8EEE00A69EED3
:1058A0008CCA20EE808ADDED090AF8EEE00A60EE8F
:1058B000808ADDED0A0AF8EEE00A20EE809AB8EE62
:1058C000000A28EE00BA2BEE090A0CEEA80A10EE28
:1058D000100A05F017F941EC100B01F069FD9FED7E
:1058E00057AB51EC100B53EC1A2B04F04BFE04F0A9
:1058F00017FC2BEE080A28EE8CDAF7EE000AC8F83F
:1059000000000DEE680A30EE200A10EE100A05F0D5
:10591000F9F82DEE090A41EC1B0B0CEE880A10EE8B
:10592000100A05F0EFF841EC100BB0EE4B1AF0EE58
:105930006B1A02F059F853EC1A2B51EC100B04F0CF
:1059400021FE04F0EDFB29EEA90A386008EE080AF2
:1059500008EEE80A09EE490A10EE100A05F0D2F83E
:1059600028EE280A41EC1B0B09EE890A20EE0C0AEE
:1059700010EE100A05F0C6F841EC100B00E00EE046
:10598000B0EE4B1AF0EE6B1A02F02EF853EC1A2B15
:1059900051EC100B04F0F6FD04F0C2FB2060BDF9E1
:1059A000180001071FD5BDF9101000EE101AF8EE0F
:1059B000C00A9FED240A60EE800AC6ED000ABDF918
:1059C000121000EE901AF8EEE00A60EE800ACAEDBE
:1059D000000ABDF9141000EE901AF8EEE00A20EE6D
:1059E000800A89ED000A10F0700F1FD0BDF9080081
:1059F00000EE100AF8EEC00A9FED130A80EE801A3E
:105A00008BED001ABDF90A0000EE900AF8EEE00AEC
:105A100080EE801A85ED001ABDF90C0000EE900AA8
:105A2000F8EEE00A80EE801A85ED001A0DB0002035
:105A3000BDEC0C8BBDE8F08F0000803066666666BA
:105A400066A64C40000080380000834238B56846A6
:105A500002F0F8FE10B14FF0FF3038BD782003F0AF
:105A6000F9FB10B16FF0010038BD782002F0A2FE02
:105A700010B16FF0020038BD642003F09FFB10B13D
:105A80006FF0030038BD02F063FB10B16FF004004B
:105A900038BD1648044602F009FE0546E01C02F037
:105AA00005FE45EAC005A01D02F000FE45EA801093
:105AB00080B202F02FFC10B16FF0050038BD40F24B
:105AC000731002F01DFA10B16FF0060038BD6420AB
:105AD00002F0EEFB10B16FF0070038BD012003F0BB
